:10000000000001202D3600002936000029360000AE
:100010002B1F000029360000293600002936000079
:100020002936000029360000293600002936000054
:100030002936000029360000293600002936000044
:1000400029360000CD660000293600002936000060
:100050001D5E000039670000D9660000F1660000EF
:10006000D16600002936000029360000293600003C
:100070002936000029360000293600002936000004
:1000800029360000293600002936000029360000F4
:1000900029360000293600002936000029360000E4
:1000A00029360000293600002936000029360000D4
:1000B0003D670000D5660000293600007D6700001E
:1000C00029360000E14F00002936000029360000E3
:1000D00029360000293600002936000029360000A4
:1000E0002936000029360000293600002936000094
:1000F0002936000029360000293600002936000084
:1001000029360000293600002936000010B5054CBC
:10011000237833B9044B13B10448AFF300800123B3
:10012000237010BDC000002000000000E4B00000FB
:1001300008B5034B1BB103490348AFF3008008BD6A
:1001400000000000C4000020E4B00000154B002BAC
:1001500008BF134B9D46A3F5803A00218B460F46FE
:100160001348144A121A08F082FF0F4B002B00D0DC
:1001700098470E4B002B00D0984700200021040028
:100180000D000D48002802D00C48AFF3008008F0A5
:100190003FFF2000290002F03FFB08F025FF00BFD1
:1001A0000000080000000120000000000000000026
:1001B000C00000205C1A00200000000000000000C9
:1001C00037B50446684680E8060003C8251D85E863
:1001D00005002373069B2361BDF81C30A382002316
:1001E0002360084B1A6812B91C6004E00A461168C3
:1001F0000029FBD114609888013080B2988003B048
:1002000030BD00BFDC06002007B503790193054A25
:100210000368009306CA02230830FFF7D1FF03B03A
:100220005DF804FBF89300000A4B40F2011210B590
:100230001A604FF0FF329A6001225A6008441A4651
:10024000814202D1D869C04310BD11F8014B9461BD
:10025000F6E700BF00C001400F4A10B41468A4F1D3
:100260007E62A2F58432B2F5104F0B460FD2246B9A
:10027000A4F17E62A2F58432B2F5104F07D2246950
:10028000064A0146A44600205DF8044B60474FF43F
:1002900081705DF8044B70472808E10F2C0700209F
:1002A00070B51C4D2A68A2F17E63A3F58433B3F5C3
:1002B000104FE0B004D34FF40174204660B070BD1D
:1002C000136B002BF7D05B6A4FF4C07269460020B5
:1002D000984704460028F0D140F201262A68A2F18E
:1002E0007E63A3F58433B3F5104FE4D2126BA2F111
:1002F0007E63A3F58433B3F5104FDCD2936A0021FB
:1003000068469847B042E9D040F20323984218BFAC
:100310000446D2E72808E10F154B0228D3F88031B4
:1003200013D0032814D0012814BFDBB2C3F3072372
:100330001B0323F47042B1B9BAB90E49CA6E22F454
:1003400070421343CB6601207047C3F30743EFE7C6
:100350001B0EEDE70749D1F8EC2022F4704213435D
:10036000C1F8EC30EFE7002AF4D00020704700BF5E
:10037000B081E00F00300E40304B1A6FD96CC907C6
:1003800002F0070242D5012A40D9132851D9143866
:1003900013288CBF102308232849013BCA6C18037B
:1003A00022F47F4240EA03231343CB64244BCA6CFC
:1003B0001B88C2F303222833013202EB820003EBD5
:1003C0005303B3FBF0F3C86C013B072B20F0EE6046
:1003D00028BF072340F4801040EA0363CB64194B25
:1003E000B3F90030002B10DB2833500800EB420239
:1003F00003EB5303B3FBF2F30A6D072B28BF07236C
:1004000022F0700242EA03130B657047DB6CD907D8
:1004100006D4012A04D809280BD90A380928B8E7D4
:10042000064BDB6C13F00103B6D0012A03D8272852
:10043000AFE70423B0E70023AEE700BF00300E4073
:10044000FA060020FC06002042EA032340F20112D3
:1004500093422BD0B3F5817F08D2012B1DD030D32E
:10046000B3F5807F31D0002213461CE040F2012218
:10047000934222D006D8B3F5007FF4D1174BD3F8BE
:1004800070310DE0B3F5407F23D040F2013293424A
:10049000E9D1124BD3F878310BE0104BD3F874311B
:1004A000C3F30722DBB203600A6070470B4BD3F83B
:1004B00074311A0EC3F30743F5E7084BD3F87831CC
:1004C000EEE7064BD3F86C31EAE7044BD3F86C3116
:1004D000EFE7024BD3F87031EBE700BFB081E00FDC
:1004E000044B1B685B0603D4034A1368002BFCD142
:1004F000704700BF3C300E40C800C643C0F3031332
:10050000013B092B2AD8DFE803F0050B0F19292935
:100510001F23374B274BD3F80001C0F3042070474B
:10052000244BD3F81401F8E7224BD3F80001C0F3B1
:100530000060431C01209840013870471D4BD3F8E0
:100540000C01C0F3082070471A4BD3F80801F8E7F4
:10055000194B984204D0194B984207D0002070479D
:10056000144BD3F8203103F00F03E3E7114BD3F81A
:100570002031C3F30113DDE7114B98420CD003F592
:10058000B01303F580539842E8D10A4BD3F8280101
:10059000C0F30120031DCDE7064BD3F82831E8E76F
:1005A000084B9842DAD1034BD3F8300100F0030036
:1005B000704700BF00400E408006160080162E00D7
:1005C00090171A00A00914000E4B30B50E4C5B6852
:1005D000C9B2002304EBC30215798D4203D154F84C
:1005E000335085420BD20133052BF3D10322054949
:1005F0004B6823F0407343EA02634B6030BD52798D
:10060000F5E700BF00000E400C93000038B5054C24
:1006100041F67133256C2364FFF7D6FF0DB100233B
:10062000236438BD00000E400C4B984210D90C4B8F
:10063000984210D9022201230A490B600A49D1F8D5
:10064000003123F0807343EA0263C1F80031704740
:1006500000221346F0E70122FBE700BF0048E80153
:100660000090D0034000C84300400E40094B30B515
:10067000196C5C6C0022234642EA0104220C827051
:100680001A0A210AC2701A0C1B0E04704170027102
:10069000437130BDB081E00F214BD3F8F821024007
:1006A0001CD170B4D3F8FC51D3F8006203F5FC748C
:1006B000641BA410022C12D0032C29D0012C1AD0B8
:1006C000184A52682A6005F10C026860C3F8FC21E0
:1006D000A96033680C33336070BC70477047114AAF
:1006E0001C1D52682A60686004221960C3F8FC412E
:1006F000326070BC70470B4C1A4664682C6042F83C
:10070000080B08205960C3F8FC21306070BC7047AA
:10071000044C6468A960C5E90040C3F8FC31E7E710
:10072000D8130020001000E0837DDB0701D5808A0C
:100730007047D0E901239B1A44BF828A9B1898B264
:1007400070470000044B5A6D22B95865A3F8581041
:1007500001207047002070477C060020D0B50C4C6B
:10076000E38C0A20584308F0A3F90646A08C0F46F4
:1007700008F09EF90022074B08F004FA02460B46E7
:100780003046394608F028FB08F00EFC2083D0BD27
:100790007C0600200000F43F084A10B5146840F2BF
:1007A000E243584303FB0141536800F5807001EBBD
:1007B000500118441160506010BD00BF7C0600203D
:1007C00070B500228AB01346D91003F00704415CCB
:1007D0002141CC0741BF0AA98918013201F8283C00
:1007E0000133252BF0D10E4D0023D91003F007045F
:1007F000415C2141C90707D5E91881F82A30013346
:10080000252BF2D10AB070BD0AAE93FBF2F102FBC8
:1008100011313144EC1811F8286C84F82A60EEE7A5
:100820007C060020024B986C80B28002704700BFAB
:10083000B081E00F7FB50E4B02466D4603F1100606
:10084000186859682C4603C40833B3422546F7D1CB
:10085000531E04A90F3211F8014D13F8010F844201
:1008600004D19342F7D1012004B070BD0020FBE712
:10087000EC91000070B5154D286810BB144B154C59
:10088000E41A154B1C4424F4FF6424F00704FFF71A
:10089000C9FF844214D2666BA6B1FFF7C3FF86423C
:1008A00010D2FFF7BFFF06F1400383420AD830465B
:1008B000FFF7C0FF30B1F36933F0080302D02C60BA
:1008C000286870BD04F50064E1E700BF4001002026
:1008D00010000020C00000202FB90000BFF34F8F90
:1008E0000549064BCA6802F4E0621343CB60BFF3CC
:1008F0004F8F00BFFDE700BF00ED00E00400FA05E8
:100900000A4B1A68A2F17E63A3F58433B3F5104F46
:1009100009D2126BA2F17E63A3F58433B3F5104FB5
:1009200001D2D36B184740F2011070472808E10F3D
:100930000D4B10B41C68A4F17E63A3F58433B3F5AA
:10094000104F0BD2246BA4F17E63A3F58433B3F56F
:10095000104F03D2A36B5DF8044B184740F201100F
:100960005DF8044B704700BF2808E10F064B1A687A
:10097000A2F17E63A3F58433B3F5104F01D2536A1D
:1009800018470020704700BF2808E10F114B196875
:1009900001F1704303F5F813B3F5006F0CD20E4B61
:1009A0001B68A3F17E62A2F58432B2F5104F03D228
:1009B00009680A4A914203D000230370836070479C
:1009C0001968074A9142F7D1012202709A68426081
:1009D0009B69F3E72800E10F2808E10FAD1007B08D
:1009E00007B0CD5E10B50C4630B90448FFF7CEFF16
:1009F000034B23600423A380002010BD9C01002032
:100A0000A001002010B508B3114B1A6891888142EB
:100A10001CD39988814281BF0121126899809A6014
:100A200099889A6800242AB904B19A604FF6FF7138
:100A3000998009E0884204D00131126889B201240A
:100A4000F1E70CB198809A60104610BD0022FBE7D8
:100A5000E406002037B50D461446FFF7D3FFD8B1A2
:100A60000369828A63B14FF6FE718A4208D1002081
:100A70000090ADF804006946984738B103B030BD26
:100A80002B602280286848B92080F7E7009B2B6004
:100A9000BDF804302380F5E70120EFE70020EDE703
:100AA00037B50D461446FFF7ADFF70B1036973B15A
:100AB000818A4FF6FE72914209D10095ADF804404B
:100AC00069460120984703B030BD0120FBE70E20A6
:100AD000F9E7000037B50379124A0333044601935E
:100AE00000F14403009306CA02231430FFF768FBA9
:100AF000228A0192E268237A009204F12C0094E8A1
:100B00000600FFF75DFB237AA4F84500054684F84C
:100B100044302279216804F1470008F09DFA284604
:100B200003B030BDF093000070B50E4C0E4B04F1D5
:100B3000100206460D4692E80300183483E80300CD
:100B40001846FFF761FB094B94E8030002221A7272
:100B500083E80300DE601D821846BDE87040FFF7A1
:100B6000B9BF00BFEC9100006C130020C40400204A
:100B70002DE9F041054616468846FFF7D5FDAB8ABC
:100B8000181A80B2864228BF064637465FB93EB182
:100B9000D5E901329A4202BFAB7D43F00103AB7548
:100BA0003046BDE8F081AB8A2C68A8681C44241A42
:100BB000A3B2BB428CBF3C46A4B22246414608F0D9
:100BC0004BFAAB682968AA8A23440A44A04493429A
:100BD000A7EB0404AB60A7B228BFA960D6E770B545
:100BE000044615461E4611B3FFF79EFDA38A181A48
:100BF00080B2012829D9E37D63B1E368628A1A7063
:100C0000120A07D02068A18A013301448B4228BF11
:100C10000346F4E700236382A368E360022204F141
:100C200012012046FFF7A4FFE37D0133E37532464E
:100C300029462046FFF79CFF638A03446382E37DD5
:100C400013B9238A0344238270BD0020FCE72DE9F9
:100C5000F041164605468846FFF766FD864228BFE6
:100C60000646B6B237464FB92EB1AB7DDA0744BF60
:100C700023F00103AB753046BDE8F081AB8A2C68E8
:100C800069681C44641AA3B2BB428CBF3C46A4B240
:100C90002246404608F0E0F96B682968AA8A234496
:100CA0000A44A0449342A7EB04046B60A7B228BF98
:100CB0006960D8E770B51E46038A04461546EBB94D
:100CC000C27DDAB10123013A0B70C27500F1100147
:100CD0000222FFF7BCFFE37D9BB1228AB24228BF0C
:100CE000324629462046FFF7B2FF238A1B1A238289
:100CF000E37D13B9638A1B1A638270BD00230B70F6
:100D0000EBE7638A2382E8E770B50D46A8B9FFF7E1
:100D1000B1FD446BFFF7AEFD58B12346084C03F11B
:100D2000400618685968224603C20833B342144685
:100D3000F7D1044B2B600423AB80002070BD00BFB3
:100D400044010020640100202DE9F04385B088466D
:100D50006946044681E80C000C9EBDF83470FFF72C
:100D600051FE4FF6FE7905460DB1444505D94FF6C3
:100D7000FF74204605B0BDE8F0832B7A9DF804206F
:100D80009A421ED10099686808F082F9C8B9002E0D
:100D9000EFD02B69AA8AA3B14A4509D10290ADF8D8
:100DA0000C0002A9984760B9029BBDF80C2043B122
:100DB000974206D13A461946304608F069F90028AC
:100DC000D7D001342D68A4B2CEE70000F0B5354C81
:100DD00085B011464FF486701F461646FFF75CFC3F
:100DE000236925462BB94FF48370FFF755FC05B0F6
:100DF000F0BD002F08BF082E21D16A4603212068CC
:100E000002F0E4FF636860615B7A23769DF800304E
:100E1000DA1F53425341627E63F30002029BE36197
:100E2000BDF802306276638304F118012369022061
:100E3000984701220021206802F0D0FFD7E7002F59
:100E400008BFB6F5000F03D1002101209847CEE777
:100E500006F4A0420023134309D04FF480714FF4ED
:100E60008170FFF719FC236900210320EEE706F4E7
:100E7000A0620023134308D001214FF48170FFF7D3
:100E80000BFC2B690021FF20E0E706F02052002335
:100E9000134319BF012140F2011031464FF4837012
:100EA000EDE700BFC41100207FB502238DF80C30A0
:100EB000064B5A8B596918680332029201AA02F054
:100EC00089FF019807B05DF804FB00BFC411002042
:100ED00008B500214FF48570FFF7DEFB044B0022BC
:100EE0001A61186801220321BDE8084002F04ABCDB
:100EF000C411002013B50D4B0D4C1B88ADF8043008
:100F00000128ADF8003004BF02238DF8043001A998
:100F100008BF0423206808BF8DF8003002F0BAFE35
:100F20006946206802F0CEFE02B010BD0C920000AF
:100F3000C411002037B5124C437A60600022009241
:100F4000D0E90021206802F0B5FF238CDB050CD529
:100F500063680C4D1A7A2978914206D0012A06D08E
:100F6000022A08D063681B7A2B7003B030BD20685A
:100F700002F076FFF6E7206802F078FFF2E700BFA4
:100F8000C4110020D9060020F0B51A4C1948637A24
:100F90000133DBB2272B85B088BF25236372FFF7AF
:100FA000C9FFE768657C627D134C144920684FF4E3
:100FB0000073023202F0EAFE6368114A5B7A05F0C0
:100FC00001052846D65CFFF795FF00220123009219
:100FD0008DF80C30314602AB2068029702F0D6FB48
:100FE00028B1FFF775FFFFF7CFFF05B0F0BD054B48
:100FF0002361FAE7DC000020C4110020F00000208B
:10100000C2930000E517000038B50D4611462C6864
:10101000A41A2246014408F04AF82C6038BD0000AA
:101020002DE9F843454F464B464EDB1B464F34688F
:101030003B4423F4FF63051B23F0070343489D4211
:101040000560B146804673D31444FFF7EBFB2C4494
:10105000A0F5805084426ED830681618B6F5806FBF
:1010600003D93B4B82221A7060E03A4F384407F0B4
:10107000F3FF394BC9F800601A681AB9332E55D9F5
:101080007A6B1A601B689D4205EB06041DD8A342CB
:101090001BD203F11002A24248D85B1B1F442F4A07
:1010A0003B4607F1100153F8040B42F8040B8B4246
:1010B000F9D12A48FFF7BEFB10B9254B8422D2E7AD
:1010C0001022FF21384607F0D2FF254F254B386804
:1010D00006F00306A41B1C4058B905EA0300C0F53E
:1010E00000612144FFF70CFC3C6040B1184B8522A5
:1010F000B9E7844203D9211A00F50060F2E7D9F874
:1011000000201449D8F80000921BFFF711FCD9F811
:101110000020D8F800300B49921B044613440D48B8
:10112000C8F80030FFF770FF002CDFD1BDE8F8836E
:10113000074B872297E7064B832294E71000002095
:10114000C0000020BC1100202FB90000340B00208B
:10115000310B0020BC0D0020B80D0020A80D002090
:10116000C011002000F8FFFFEFF3108072B6704747
:101170000B4A536911699B0003F03C03C1F38111D1
:101180000B438370136903F03F0343709369D26983
:1011900003F0F003C2F3031213430370704700BF60
:1011A000D0FF0FE0054A064B1B68136F23F00703BF
:1011B0001843044B10671888FFF7DEB800300E4064
:1011C0008009C643F8060020EFF3108072B670471E
:1011D00000B962B67047000010B5034CA01DFFF7C0
:1011E000EFFA0023236010BD880D002010B5094CD4
:1011F000B4F80710A079FFF7CFFAA368064AB4F84D
:101200000D10D184C3F30F239384FFF7A7FA0023B3
:10121000236010BD880D00207C060020034B044A8B
:101220009979117500221A60704700BF880D00205F
:101230007C060020FFF7CCBF2DE9F0410D4F06469C
:101240000D4614460CB9BDE8F081EFF3108872B674
:1012500023462A4631463846FFF7C1FC034640463E
:10126000FFF7B6FF002BEDD0E41AA4B21D44002610
:10127000E8E700BF6C0C002013B5002301F108045F
:10128000ADF80430ADF8060021461A46083151F891
:10129000100C70B90BB1ADF8042004220DEB020163
:1012A00001200834FFF7C8FF54F8101C39B902B008
:1012B00010BD51F80C3C1A4492B20123E6E734F811
:1012C0000C2C0020EDE700007FB500230130CDE9B4
:1012D0000101CDE904336946044B009304200392D5
:1012E000FFF7CAFF07B05DF804FB00BF8A010020CA
:1012F0000E4A1368A3F17E63A3F58433B3F5104F50
:1013000010B50ED2EFF3108072B6094900240B78A5
:101310000C70FFF75DFF3BB11368BDE810401B6A1E
:1013200018474FF4817010BD1846FCE72808E10FFC
:10133000850D002001282DE9F34740F03B818B8883
:10134000012B40F039810B681B7813BB9C4A9D4CE4
:1013500013609D4A13609D4A13609D4A13609D4A25
:1013600013609D4A13709D4A13609D4A1360227852
:10137000022A01D1FFF7BCFF01232370994B0024FF
:101380001C70994B1C70994B1C70204602B0BDE834
:10139000F087032B40F0FB80944B8A4E1C78002C86
:1013A00052D13378002B00F0E6808B4B1B78082B52
:1013B00040F08480824B1868984688B98C4D2B6821
:1013C000A3F17E63A3F58433B3F5104F57D34FF4E5
:1013D000017041F20804A0420CBF8624802433E04F
:1013E00010F003071ABFC7F10407FFB2274600EB4E
:1013F000070ABAF5806F00F2C4807E4B3A46FF219F
:10140000184407F034FE754A7B4913680968C8F828
:1014100000A00AEB03008842914600F2B6806A4AB7
:1014200015681D445544DFF8ACA125F4FF65DAF8D2
:10143000000025F0070585420BD9291A00F5006048
:10144000FFF75EFA18B18524002333709DE7CAF8D0
:101450000050D8F80010D9F80000FEF7FDFED9F8CA
:101460000030D8F80020564913440546DF1B614878
:10147000C9F80070FFF7C8FD002D9FD0E3E7FEF725
:101480000FFF0028A5D12A680190A2F17E63A3F581
:101490008433B3F5104FD6D2126BA2F17E63A3F55D
:1014A0008433B3F5104FCED29369012101A8984738
:1014B0000028C8D14C4B01221A70C5E7002B5CD024
:1014C000484B1B78002B5AD0454F3B6843B9404BE3
:1014D0004A4918681022FFF72BFA0028B4D0B2E767
:1014E00013F003021CBFC2F10402D2B29D18B5F57D
:1014F000806F46D84248FF21184407F0B8FD414AA2
:10150000414B324841493D609B1A414A13440268AD
:101510000B409342804636D81544FFF783F9A0F577
:101520008050854231D83D68DFF8A8902A44D9F828
:10153000000002EA0105854209D9291A00F5006078
:10154000FFF7DEF900287FF47EAFC9F800503A6853
:101550002B49D8F80000FFF7EBF9D8F800303A68CB
:101560001F49054613442648C8F80030FFF74CFDD4
:10157000002DACD067E7812466E7842464E78024EB
:1015800062E7822460E787245EE783245CE7042B1C
:1015900014D1204C13230221637020462170FFF7E1
:1015A000D1F81D4A1D4B128905329A801C4A1A60D7
:1015B00062789A710024E8E60D24E6E60624E4E663
:1015C0002C0B0020320B0020CC130020340B002009
:1015D000B80D0020C011002084010020380B00202D
:1015E000BC110020300B002091010020310B0020A5
:1015F0002808E10F2C070020D0130020A80D0020A0
:10160000BC0D002010000020C000002000F8FFFFEB
:101610002FB900009C0D00207C060020880D0020C2
:10162000E11C00000E4A1368A3F17E63A3F5843326
:10163000B3F5104F10B50ED2EFF3108072B6094B10
:10164000012419781C70FFF7C3FD39B91368BDE890
:101650001040DB6918474FF4817010BD0020FCE793
:101660002808E10F850D0020134A144C08B5937E1D
:1016700043F040039376124B00221A70114B1B78F3
:101680004FF000556BB1FFF7CDFF0F4B2B600123DF
:10169000A360236823F4E06343F480632360FFF7CF
:1016A0001DF92B600123A360236823F4E06343F456
:1016B00080632360FFF712F97C06002000500E4083
:1016C000D80600209101002002020FF010B5134C43
:1016D000A37E5B0621D4FFF7FBFB2168A38C40F2BD
:1016E000E24202FB0312226094F84F10A27A2520F6
:1016F0000A4492FBF0F100FB1122A272228901320E
:10170000228162680A2101FB03236360238B5A1E36
:10171000228313B90820FFF7A7FF10BD7C06002025
:101720002DE9FF41294C40F601002189FEF7B4FF65
:10173000A37E13F0400242D143F0010303F0FD0306
:1017400062F38203224AA376136823B12189928827
:10175000914200D19847A37A1E4F1F48234493F823
:101760002A306375FFF7E6FBD4E900547B681B4A17
:101770005B7A64082E1B12F803800120FFF7BAFB86
:1017800064350096002625446A46012441463346C6
:10179000386802958DF804608DF80C608DF80D4066
:1017A0008DF80E6002F01CF8224605463146386876
:1017B00002F014FB35B1FFF789FFFFF7B1FF04B06A
:1017C000BDE8F081064B3B61F9E700BF7C060020D5
:1017D000880D0020C411002088060020C29300005C
:1017E0004919000002282DE9F0411FD002D8012834
:1017F00007D0FEE7032800F09C80FF2800F09980C6
:10180000F7E74D4C637C980707D5FFF761FBFFF7BF
:10181000BBFB637C6FF341036374637C990701D462
:10182000DA0764D4BDE8F041FFF7AEBB4B784C68F3
:10183000DB077ED5227802F00F07032F59D0052F42
:1018400077D13E498B7B03F00103B3EBD21F04F148
:1018500008004CD10622083107F01AFC8046002807
:1018600045D1FFF735FBFFF71FFB354D41460646D7
:101870005C22284607F0FBFBAB7E2F8343F020035E
:10188000AB76627E237E43EA0223AB84627F237FB2
:1018900043EA0223EB8494F82330C3F3040385F86E
:1018A0004F3094F82330C3F3421385F8503004F1DD
:1018B0001E001B232B85FEF783FFD4F80E30E27C3D
:1018C000EB60A37C2E6043EA0223227D607D43EA25
:1018D00002432B61012795F84F30AB722F75E18AD7
:1018E0003944FEF759FFFFF71BFF164B1F70BDE889
:1018F000F081124DAB7B03F00103B3EBD21F04F177
:101900000800F4D1062205F1080107F0C1FB002808
:10191000EDD1094C286894F83D204FF40073023251
:1019200004F13C0102F032FA637C43F00203637479
:10193000DDE7FFF7CDFA75E7DC000020C4110020D9
:101940007C060020D806002002282DE9F7430F4628
:101950000BD003D8012800F0B281FEE7032800F085
:10196000B681FF2800F0B381F7E748784E68BB4D99
:1019700010F0010461D14FF0FF3140F60300FEF793
:101980008BFE2646AB7EB64C13F0200F12D0696D4D
:101990006FF34513AB76002900F09F80237895F80C
:1019A0005820627043F003032370A01C07F054FB1F
:1019B00000236B65AB48DFF8D082FEF7B5FEAA7E48
:1019C0002378003018BF012060F34102C2F30011F8
:1019D000AA7661F38203C2F3C00262F3C30360F329
:1019E00004132370218840F60200FEF755FE62784A
:1019F0009B49D8F8000002324FF40073D2B202F0D3
:101A0000C5F9AB7E7C68D90709D56FF30003AB76C7
:101A100000236B60FFF748FA2860FEF79FFE4EB187
:101A2000237803F00303022B00F031816DD8012BE2
:101A300000F02C8103B0BDE8F083318840F603004C
:101A4000FEF72AFE3378A97E96F80080C3F30013D0
:101A500063F38201A976C8F3C003C1F300118B427E
:101A600006D108F00303022B05D019D8012B31D081
:101A70000026344615E0A146767896B17A48848AE5
:101A8000FEF752FE201A80B2B9F1000F04D00228EE
:101A900086BF023880B2002086428CBF0024012419
:101AA0002646AB7EC8F38008C3F3C002904507D03A
:101AB00082F0010262F3C303DBB243F02003AB7692
:101AC000002C3FF45FAFAB7E81F0010161F30413A2
:101AD000AB7657E74FF00009CEE795F8283061481C
:101AE000A21C0DF10701FFF7E5F8C0B258B19DF84F
:101AF0000730002B0CBF012202222378607062F3B2
:101B00000103237056E70122F7E7A378022B65D083
:101B100011D8002B4DD0012B38D0544A127822B165
:101B2000162B7FD0182B00F08C80514807220270B2
:101B30004370022127E00C2B18D0142B56D0082B11
:101B4000EBD1B8F8201054F8035FC8B205EA0002E0
:101B5000474801F47F41044642EA0105092104F89F
:101B6000011B0023C0F8015063600CE040484FF0B7
:101B7000FF3203700123437082700371022200233D
:101B8000C27043710621FEF7DDFD53E7617A237AC7
:101B9000384A43EA012393801346374943F8061B2A
:101BA00054F8031FC2F80610A2889A80A2799A718D
:101BB00040E7627B237B2F4943EA02238B800B465D
:101BC0002E4A43F8062B54F8032FC1F8062062680A
:101BD0005A6022891A81A27A9A722BE72A89254BA8
:101BE00005329A80264A1A60E278E0E7B4F80530B8
:101BF000B4F803201E48DB08934228BF13462B8508
:101C0000152300216FF004046FF0270203700723EF
:101C1000817081714470C27003714471C27103722A
:101C20000921B0E72279E3781148134003F0030358
:101C3000022B18BF01231722027043708370032107
:101C4000A1E76279A1790B4B42EA01229A800D4A01
:101C50001A60D4F80320C3F80620EBE67C060020C7
:101C6000DC1500206C0C0020540B0020840D00209B
:101C70009C0D0020880D0020D9110000ED110000FE
:101C8000E11C00001D120000C411002000261248B3
:101C9000818AFEF749FD081AA51C80B2647826B136
:101CA000022886BF023880B20020A3B283423FF6EA
:101CB000C1AE2A4631460848FEF791FFBAE6074B07
:101CC0009B7E9A073FF5B6AE5B073FF5B3AEFFF7D5
:101CD000FDFCFFF725FDADE6540B00207C0600203F
:101CE00008B5024B9879FFF7BFFC00BF880D0020B4
:101CF000F8B504287BD8DFE800F00B0312A2A70098
:101D00008026402506230724002900F0848072E005
:101D10004FF400764FF4807508230924F4E7002976
:101D200076D04C4C636A13F0300F61D14A4BDB6BB9
:101D3000636ADD0705D5636A23F0300343F01003BF
:101D40006362042502230324424E3566434E334426
:101D50009B001F68002FFCD0002A48D03444A40008
:101D60002368002BFCD0022841D100293FD0394BF9
:101D70005A6A12F0010F1A463FD04FF48062C3F83E
:101D8000A82020225A665A6A12F0300F0CBF4FF476
:101D900040024FF40002D3F8901032EA0101FAD168
:101DA000520201D5D3F8A0302A4E01220021022090
:101DB000D6F89C70FFF79CFFD6F89030726A284BDB
:101DC00022F0300242F010027262C7F30A07316B50
:101DD000FA0903320F2A03EA010328BF0F223B430B
:101DE00043EA0273336335662368002BFCD0F8BDE9
:101DF0000425022303240021A6E7536AD2F8903079
:101E000003F44003B3F5400FF8D1D2F8A030CBE78C
:101E10000826022303240F4901200E6600FA03F36B
:101E2000D1F890001842FBD1002AE0D00123094AE2
:101E300003FA04F4D2F890302342FBD1D7E701250E
:101E4000022600232C465FE72026102504230524C4
:101E50005AE700BF00400E4000300E408004F210F0
:101E600000F8FF0F0048704700F0490200F00F0033
:101E70000138072848D8DFE800F0040F1947232D60
:101E80004735244BD3F8943003F00703023B052B6E
:101E90003CD8214AD05C70471E4BD3F8803003F009
:101EA0000703013B032B33D81C4AF3E7194BD3F844
:101EB000843003F00703013B032B29D8184AE9E7D4
:101EC000144BD3F8883003F00703013B032B1FD8D2
:101ED000144ADFE70F4B1B6F13F0010F14BF0920EB
:101EE000072070470B4BD3F85C3103F03003202BF5
:101EF00006D0302B06D0102B0CBF072001207047D6
:101F00000420704708207047002070470520704764
:101F10000120704700400E401E92000024920000F5
:101F20002892000024920000FEE708B5FEF7D6FCD8
:101F3000044B054A9A60D3F8882042F47002C3F833
:101F40008820704700ED00E0000000000D4AD2F844
:101F5000943003F00703023B032B0ED8DFE803F0B5
:101F6000020F0F0B0848D2F80031C3F304230133EA
:101F7000B0FBF3F070470548F5E70548F3E74FF489
:101F80000040F0E700400E4000F0490260F590008C
:101F9000C0EA2101154B1B685B0670B504460E466E
:101FA00022D4FEF79DFA124B5B68C3F301439842BB
:101FB0001AD0104BD3F80031FFF7C8FF022C0546AA
:101FC00002D12146FEF722FBC4F102021023934006
:101FD000074A13610EB1FEF783FA2CB92146284651
:101FE000BDE87040FEF712BB70BD00BF3C300E4034
:101FF00000300E4000400E40094B1B685B0610B5D8
:102000000C460BD420B9074BD3F80031FFF79EFFE5
:1020100021460020BDE81040FFF7BCBF10BD00BF47
:102020003C300E4000400E4008B5FFF78FFF044BD8
:10203000D3F80831C3F308230133B0FBF3F008BD34
:1020400000400E401128F8B505460C4611D1042970
:102050000FD100216248624EFFF7CEFF05F00F0559
:10206000013D072D65D8DFE805F0110660645E7E4E
:1020700064890026F2E75B4D013C092C59D8DFE862
:1020800004F070596058586758585856023C0A2C4A
:102090004FD8DFE804F04340343A4E4E4E4E4E06E1
:1020A00046000320052401221146FFF721FE4E4D74
:1020B0004B482F6C41F671332B640021FEF784FAF4
:1020C0000FB100232B640EB1FEF70AFA474B5C6791
:1020D000FFF7AAFF0446FFF739FFFEF7A5FAFEF760
:1020E000FFF9434B59682046C1F30141FEF78EFAD0
:1020F000FEB930460121BDE8F840FFF77DBF3D48FD
:10210000FEF792FA02200446CDE73A48FEF78CFA31
:1021100001240320C7E701200324C4E7002004248E
:10212000C1E70724C3E7344DA6E7344DA4E70423F1
:102130002B60F8BD012211460020FFF7D9FD0223D4
:10214000F6E7012211461046FFF7D2FD0123EFE723
:10215000FFF7FCFEFEF768FA294B01221A60032301
:10216000E6E70023E4E7072C04D0092CE1D11F4B5C
:10217000012201E01D4B00221A67DAE7013C072C1F
:10218000D7D801A353F824F0DB210000332100004D
:1021900033210000CD210000332100003321000055
:1021A000BF210000A921000003221049D1F85C31B1
:1021B00023F0300343EA0213C1F85C31B9E701228E
:1021C00011460420FFF794FD0122EEE7012211469B
:1021D0000220FFF78DFD0222E7E70022E5E700BFBE
:1021E00000F0490280400E4000000E4000400E40CA
:1021F00000300E400148E80188400E4084400E4007
:102200000816C84338B5C0F30323013B04460D4606
:10221000092B1AD8DFE803F031211A1905242719F0
:102220002A2E174B0022C4F3043442B11548D0F8CB
:102230004411C90703D4D0F840110A42FBD103F17D
:10224000047304EBC3039B001D6038BDFFF7ECFE75
:10225000FEF7EAF900220C4BE5E700220B4BE2E720
:1022600001220B4BDFE710220A4BDCE74FF48032F0
:10227000094BD8E70022094BD5E70022014BD2E7F2
:10228000B0400E4000400E40B8400E40C0400E40EE
:10229000E0400E40E8400E40F0400E4050410E40FD
:1022A0002DE9F84F404E414D96F800A081468846F2
:1022B0001746BAF1000F39D1FEF7B4FA3C4CA0F53D
:1022C00080502060FEF7AEFAA0F50060606001214A
:1022D0003848FFF797FF216808200431FDF7A4FF75
:1022E00023681B68834208BF2368616808BFD3F86E
:1022F00004B001F104014FF008000CBF4FF0010AD7
:10230000D346FDF791FF63681B68834205D163687C
:102310005B685B4506D8002305E0BAF1000FFAD1EF
:10232000FF2300E001232B700123337095F9003067
:102330005A1C28D01E4ADFF880A052F823600C36C1
:1023400035464FF6FF7BC5F30A030833B3F5006F3C
:1023500019D2AB885B4516D0A879291D0430FDF74A
:1023600063FF2B68EC888342E4B202D1AB884B4513
:102370000CD0033404F4FE740834254486EA0503C3
:1023800013EA0A0FDFD0002038700AE03B78A3423E
:10239000F9D3224605F10801404606F05DFE3C7087
:1023A0000120BDE8F88F00BFD413002010000020EA
:1023B000F006002000650A0000F8FFFF2DE9F04F4D
:1023C000012891B040F010828A88002A00F00E8225
:1023D000A64B93F800A09846BAF1000F00F00882CF
:1023E000A34B1C781E465CB9A248029005783DB903
:1023F000A14D28681718B7F5806F05D982241C7085
:10240000204611B0BDE8F08FDFF88C92096848448F
:1024100006F022FEBAF1020F2F603CD0032FEFD955
:10242000964F3846FEF7B2FA3B78D9F80020012BD8
:1024300047D17B68190E012903D1C3F307430A2B47
:102440004CD98F4B9A423FD1BB68DA0344D5022363
:1024500088F80030FFF7E6F88A4B1A68A2F17E632D
:10246000A3F58433B3F5104F0BD2126BA2F17E6348
:10247000A3F58433B3F5104F03D2936809A9002064
:102480009847814B099A1A60804B0A9A1A6098F80B
:102490000030022BB4D17E4A1378082B934640F0CB
:1024A000B3807C482B680168784F03F003095A1801
:1024B0003F68A2EB0902BA42804611D983243470E6
:1024C0009EE76F4B9A4207D0842333703378002BFA
:1024D00096D033701C4693E78623F6E78823F8E707
:1024E000694ADFF8C4A11768DAF800001F440F44F6
:1024F000A7EB090727F4FF6727F00707874209D9E9
:10250000391A00F50060FEF7FBF908B18524D6E71B
:10251000CAF800702968D8F80000A1EB0901FDF79E
:102520009BFE2A68D8F800305349A2EB09020746FF
:1025300013445948C8F80030FEF766FD002FE5D176
:102540009BF80030002B7FF45BAF2B687F2B7FF66E
:1025500057AF524FDFF82C813868E8B9D8F800300F
:10256000A3F17E63A3F58433B3F5104F0FD209A80E
:10257000FEF70CFA0A9BC3F307421B0E72D0012B25
:1025800001D10A2A6ED9D8F800309B6B9847444B8A
:10259000186006F075FD3860414BD8F800201968C6
:1025A0003868A2F17E63A3F58433B3F5104FADD242
:1025B000936A98470028A9D1D8F80030A3F17E6328
:1025C000A3F58433B3F5104F1CD22A68D7F800A0C6
:1025D000039206A8FEF7DAF9079B190E12D001291B
:1025E000039A03D1C3F307430A2B0BD9D8F8003061
:1025F00005A90091D3F83490274909AB5046C84744
:10260000002853D084245AE7002B99D021492B6805
:102610000A681A440A60214A10681A4A1168A1F12E
:102620007E62A2F58432B2F5104F11D2CF6A1A4AF7
:102630001C49B84707462A680F491748FEF7E4FCCB
:1026400040F203239F4206D1029A01231370D7E67A
:1026500040F20227EFE740F201239F423FF470AFC0
:1026600080242CE74FF4C07091E700BF320B0020AC
:10267000310B0020300B00202C0B0020A801002083
:10268000EB17A6032808E10FCC130020D01300207D
:1026900084010020380B00202C0700204C0B002068
:1026A000500B00203C0B0020C01100209DF824306E
:1026B0008BF800300393FEF7DDF8039B814600287A
:1026C00053D0D0F834A0002B3FF49AAE00220692EB
:1026D00010AA042102F82D1D352006A90393FFF747
:1026E000DFFD069AD30752D5039B082B3FD05346F4
:1026F000BAF1000F3CD1B9F1000F4BD1DFF81091C6
:102700003C4BC9F80430D8F800203B4B38681968B6
:10271000A2F17E63A3F58433B3F5104FBFF4F6AE98
:10272000936A984700287FF4F1AED8F80010386813
:102730002B68A1F17E62A2F58432B2F5104F50D21F
:10274000CF6A2E4A4946B84707462A682C492B4883
:10275000FEF75AFC40F203239F423FF475AF40F26C
:1027600001239F427FF47CAF4AE68246ABE7254BCC
:10277000039310220CA903F1280006F089FC20B96C
:10278000039B0A9A1B6A9A4201D8892497E6B9F1F9
:10279000000F12D04FF400614846FEF7B1F8002850
:1027A0007FF4B4AE2AF4FF604FF4006120F007001C
:1027B000FEF7A6F800287FF4A9AE9BF80030082B9E
:1027C0009CD1114B114A186820F4FF6323F00703D2
:1027D0004FF400611360FEF793F800287FF496AE83
:1027E0000EE640F20227B0E7002409E60D2407E6D2
:1027F000812405E621100000500B00202C0700204A
:102800002C0B0020CC920000CC130020C011002023
:102810003C0B0020000000002DE98048704B5B68F5
:102820005805ABB019D44FF0005300221A6022A80B
:10283000FEF7ACF8FEF71EF8B0B1446BFEF7F2FEFF
:10284000249B590740F1A180FEF714F8FEF78EF89B
:102850000446FEF74DFD3CB1AEE04FF000531A6860
:10286000022AE0D100221A60BFF34F8FBFF36F8FAF
:102870005C4A5D49536A5D4F5D4D23F4803353627A
:102880009032536823F001035360086890604FF062
:102890000053D360441C574B1361AF420C604ED0C1
:1028A0007E1E731B43EA530343EA930343EA131365
:1028B00043EA132343EA13430133B3F5807F38BF60
:1028C0004FF48073C3F1000C0CEA050C03EB0C0E03
:1028D000774500F282805FEAD308AEEB07074FF03E
:1028E000010E08BF4FF02008B7FBF8F70EFA07F704
:1028F000013FB3FA83F3FFB2A6EB0C06C3F11E034C
:10290000B6FBF8F6764407FA06F603FA0EF3A5EBE3
:102910000C07B7FBF8F70EFA07F7013F03F03E0389
:10292000374343F0407307F0FF0743F0011343EAD6
:10293000072302309460C2F80CC013610860BFF333
:102940004F8FBFF36F8F05235360264A536A43F4BA
:1029500080335362BFF34F8FBFF36F8F264B274EE9
:1029600001225A64F36C1B0E50D1254925484AF6C2
:10297000E8520A60026842F0040202600B60224AD8
:10298000136843F40053136042E014B9FEF7B0FC3F
:102990006AE7FDF747FF8442F8D2FDF743FF04F1F1
:1029A00040038342F2D82046FDF744FF0028EDD0D3
:1029B00063696BB9FEF79CFCFDF75CFF0446FDF70D
:1029C00059FF084B986023689D46636898474BE71A
:1029D0009DF88830012BEDD136E75B0072E700BF30
:1029E00000500E4000ED00E068130020B800002009
:1029F000B80000202300011300000E40B081E00F5A
:102A000090310E4098310E4064310E40012BB6D00B
:102A1000714A136A23F4441343F488131362A2F532
:102A2000804222AF136843F48073136002F546526C
:102A30002432136843F4F8431360684B02229A630C
:102A40009A6B02F00F02022A40F0DA80DA6C22F070
:102A5000405222F0010242F00102DA64D3F8EC2085
:102A600042F44072C3F8EC205D4A0F211180DA6E07
:102A700042F08072DA665B4B186800B10420FEF702
:102A800091FB594B554DC8221A80584BA0220F205C
:102A900000241A80FDF770FC554BAB65CDE91A4454
:102AA00022947C60D6F86831C3F30722DBB224920B
:102AB0001C93EB6CC3F3017A2246534639461AA89D
:102AC000FDF7C2FCD5F8EC30C3F3012922464B4692
:102AD00023A91BA8FDF7B8FCDDF890C01C9A1A9D2D
:102AE0002298DDF86C80ACEB02014FF41673594369
:102AF000B1FBF3F32146239CD2184FF4167BA0EBD5
:102B0000050328BF01210BFB03F3B3FBFBF3ED1817
:102B1000A4EB08032CBF4FF0010E4FF0000E0BFB8F
:102B200003F3B3FBFBF318EB03082CBF01230023D3
:102B3000944565D3002963D1444561D3002B5FD10F
:102B4000A8425DD3BEF1000F5AD1244CE36D23F4AB
:102B5000FE4323F0020343EA0223E3655046FDF7F8
:102B6000DBFB00284CD001214846FDF7D5FB0028AF
:102B700046D0636E454538BF4546E72D23F4FF73C5
:102B800028BFE72523F0010343EA45036366E36BAF
:102B900043F48063E3634AF6E853606B6363214662
:102BA00023469A6FD207FCD41B6C124A13F003031E
:102BB00022D0012313608B6FDB07FCD40B6C23F056
:102BC00003030B6405498B6F13F00103FBD101284C
:102BD000136008BF4B6310E000400E4000300E4011
:102BE000F80600208009C643FA060020FC060020F3
:102BF000372110B7B40AC6431360C54B01221A60CF
:102C0000C44CDFF87CA3DFF87C931120FFF72EF98A
:102C1000012200210220FFF76BF8636A23F0010311
:102C20006362BD4B00251D60A36A23F0070343F0D8
:102C30000603A362B94BE362226BB94B02F07F62D9
:102C400013432363B74B636304211120FFF7FAF9A1
:102C5000DAF80030636A0121484643F04058FFF734
:102C6000CBF9FDF73DFCDAF804104846C1F3014109
:102C7000FDF7CCFC1120FDF741FC0130B9FBF0F071
:102C8000FDF7D2FC012211460220FFF731F8C4F80B
:102C90002480D4F8C83043F00103C4F8C830B36AC4
:102CA000A14E2AAA0424B36509A902F88C4D352047
:102CB0000995FFF7F5FA06238DF81B30099B8DF86F
:102CC0001A4013F4803F994D0BAC00F06182B36D54
:102CD0008DF82C30B36D8DF82D30B36D8DF82E300E
:102CE000B36D8DF82F30B36D8DF83030B36D63F068
:102CF0003F038DF831309DF8323043F001038DF8F9
:102D000032306C608A4B8B4A9A6000264FF4807197
:102D1000C3E900221E825961874A884BDFF8688226
:102D20009A60C3E9002259612022314638461E824A
:102D300006F09DF9FC2208238DF88B20804A8DF83F
:102D4000893023928DF8993040F20172F823ADF862
:102D500092208DF89B307B4A7B4B25924FF00109E6
:102D6000384627938DF8909000F076FC7748784BA2
:102D700003603146774B436000F0EAFC62A3D3E97D
:102D80000023C8F80000CDE900234FF0FF334FF0D7
:102D9000FF3200F09BFF02224FF0FF31D8F8000015
:102DA0006D4C00F09DFF6D4B2293394603F50033C7
:102DB000D8F800002496239300F082FD2146D8F82D
:102DC0000000267000F0B7FF464630B12146D8F823
:102DD000000084F8009000F0AEFF3068DFF8ACA18E
:102DE00001F03AF82178B5F90020306800F044FC91
:102DF0000146306800F089FF6C68002C40F0E281E9
:102E00005046FDF733FCB37B64F30003B373544BBC
:102E1000544C554DDFF878814FF0200983F8019329
:102E20005A2283F80493002183F8069304F10A00E0
:102E300083F8079383F8059383F8089383F81D9329
:102E400006F015F942F21073E360484B4FF49072AC
:102E5000C4E9005332842523454A63720123137069
:102E6000444D23720022C8F800201B222A802AAA7F
:102E70000DF1190102F8903D3E20FFF711FA2AAA40
:102E8000112302F8913D15A93620FFF709FA2AAA65
:102E9000394602F8929D3920FFF702FA002879D1CD
:102EA000354B9DF8172018681B7922903B71002A3A
:102EB00000F091811B2A28BF1B22531D8DF816306C
:102EC00015A9531C0DF18D008DF88B3006F0C4F858
:102ED0001AA8FDF7CBFB294A9DF816301288FA5242
:102EE0002AA99A1C51FA82F2002102F8201C1A9891
:102EF000BDF86C1042F81F0C093322F81B1C8DF82A
:102F0000163047E0AFF3008008558028000000002D
:102F10009407C64300400E40A004C84320000500AB
:102F200007450BD047A00200005008409401002044
:102F30006C0C0020840C00206C0B0020540B002033
:102F40003C9200002C92000080920000F4110020BE
:102F5000CD0D0000E8110020140000203C0094007A
:102F600000E100E0DC000020D6BE898E55555500FA
:102F7000840D002086010020349300003E93000061
:102F800000300E4000F04902C4110020CC11002096
:102F9000B80300202AAA202302F8933D1AA93A2058
:102FA000FFF77EF948B9B84B1A889B788DF86A30DC
:102FB0000323ADF868208DF81530B44BB4480022D7
:102FC0004FF00209C3E90022B24B036080F804907D
:102FD000FDF71AF9B048B14B036080F80490102354
:102FE0000372FDF777FDAE48AE4B0360AE4B80F841
:102FF0000490C36080F80890A0F81090CDE90039E3
:103000004B4690E806001430FDF7DAF89DF81710EB
:10301000002900F0EE8015A8FDF786FDA348A44B1B
:1030200003604FF0100980F80490FDF7EDF8A14817
:10303000A14AA24B03604FF6FE7B0823C260A0F8B2
:1030400010B080F8049003720393FDF743FD9C4891
:103050009C4A02600C2202729B4AC260A0F810B027
:1030600080F80490FDF736FD9848994A039B02606A
:103070004FF0020B974A80F80490C260038280F8F8
:1030800008B0FDF727FD9448944B0360944BC36050
:1030900080F804900123038280F808B0FDF71AFD40
:1030A0009048914B0360914BC3604FF6FE730382CF
:1030B00080F8049080F808B0FDF70CFD8C488D4B2B
:1030C00003608D4BC3604FF6FE73038280F804905B
:1030D00080F808B0FDF7FEFC884B6C4A1A604FF68A
:1030E000FF729A809DF81620202A05D8931D6375DB
:1030F0003946834805F0B0FF9DF81520202A06D8F0
:10310000931D84F83D301AA97E4805F0A5FFFDF710
:10311000DFFE227C637C002A6ED143F001036374DE
:10312000237D62F30303B27B02F0010262F3861394
:103130002375637D0BB906236375734BBAF80410CE
:10314000B068C4F81600998094F83C30042161F30B
:10315000030362F3861384F83C3094F83D3013B9CE
:10316000062384F83D30694BB068BAF80420C4F8EF
:103170003E009A80FDF708FF654C664B1B78002BDC
:103180007BD1654A136923F00403136130BFF4E770
:103190000DF11B0221462C20FFF782F800283FF496
:1031A000B1AD0DF11A0208A93C20FFF779F89DF89E
:1031B000323020B19DF8202062F300039FE560F3D8
:1031C00000039CE52068B060A288A3798AF80630E5
:1031D000AAF804201BE608238DF8163004238DF886
:1031E0008B304E4B1A889B78ADF88D208DF88F3040
:1031F0006EE6032149480FE76FF300038FE7EFF313
:10320000108672B600231A460DF11D014448FDF7E1
:1032100051FD3046FDF7DCFF9DF81D3013B1002352
:10322000C8F80030D8F80020EFF3108672B6C2F567
:1032300001739BB222440DF11D013948FDF73AFD9F
:1032400003463046FDF7C4FFD8F8000018440328B1
:10325000C8F8000011D9B4F8009009F104039842AD
:103260000BD307D8608804284FF000075AD00628EF
:1032700000F0C8810023C8F800302948FDF754FA4F
:103280000028BCD17DE700BF0E920000DC060020C4
:103290008C130020419300001C0500204493000083
:1032A000000700204793000012920000AC1300209A
:1032B0004A93000074050020351300005B93000062
:1032C000CC0500206C930000BD23000014040020F6
:1032D0007D930000C4920000240600208E9300001D
:1032E000C19300006C0400209F930000E5090000DA
:1032F000BC030020B0930000090D0000E40600208C
:10330000F800002020010020F20000201A01002017
:10331000B4010020D806002000ED00E03A93000040
:10332000540B002022796F8009F1FF33082A9BB2E9
:1033300000F0DF801BD8042AB74E39D0062A4ED0C1
:10334000022A1AD1022B40F05981B4F805700022EC
:10335000B7F5007F28BF4FF4007703231146022002
:103360003370A6F80170FDF7AFFF2F8082E7102AB7
:1033700000F0F48003D80A2A70D0062294E0122AC2
:1033800000F09B80522AF8D1B4F80500FDF73AFB13
:1033900000283FF46FAF037B5B077FF56BAFA9F1AC
:1033A000030292B29D49B4F80500FDF779FB61E78D
:1033B000042B79D1B4F80570B8B2FDF723FB58B1EE
:1033C000027A41687780022A0CBF0123022305207C
:1033D0003070737003205FE06F800A2264E0DFF8D2
:1033E00040B2B4F80500B4F80710CDF844B04FF07F
:1033F0000203A9F107028DF8483092B20BF10203E3
:103400000093019211AB0CCBFDF79EFC4FF6FF7AB7
:103410005045814604D16368C3F30F236B80DCE71A
:10342000CDE900774FF002038DF83830CDF834B095
:1034300001300DAB0CCB514680B2FDF785FC5045F9
:103440001CBF00F1FF3080B207233370A6F8019053
:10345000A6F803000022114604201DE0022B40F0D4
:10346000CD80B4F80500FDF7CDFA00283DD0037BF0
:10347000990714D52B882AAA013B22F8803D11A96F
:10348000B4F80500FDF7E6FA024648B9624BBDF80C
:1034900028200B2119701199FDF716FFEAE6022288
:1034A0006368C3F30F236B805B4B20796988587086
:1034B00001261E7059801A71CCE7B4F80500FDF79B
:1034C000A1FA90B1037B1A0711D5A9F1030292B2B8
:1034D0005249B4F80500FDF7E3FA02460028DFD1AF
:1034E0004D4B132119700146D6E70122D8E703227C
:1034F000D6E7A9F1050B1FFA8BFBBBF1020F02D037
:10350000BBF1100F7CD1464BB4F80500B4F807109E
:1035100011930023CDE900338DF848B011AB0CCBEB
:10352000FDF712FC4FF6FF73984206463FF473AF67
:103530002B882AAA043B22F88A3D0AA9FDF78AFAB9
:10354000024608B16E80AFE7334BBDF81E205E80A7
:1035500009211970911C59700A993BE7A9F1050BD3
:103560001FFA8BFBBBF1020F02D0BBF1100F47D14A
:103570000027B4F80500B4F80710DFF8A4A0CDF8D0
:1035800044A0CDE900775FFA8BFB8DF848B011AB12
:103590000CCBFDF7D9FB4FF6FF79484506463FF4C3
:1035A0003AAFCDE90077CDF83CA08DF840B00130BE
:1035B0000FAB0CCB494680B2FDF7C6FB2B882AAA7D
:1035C0004845A3F10603074622F88A3D18BF00F1DB
:1035D000FF370AA9304618BFBFB2FDF73BFA0246D3
:1035E0000028AFD10C4BBDF81E205E801121197050
:1035F000111D59709F800A9905204DE7042253E759
:10360000024651E7074B119311A90223CDE9137725
:103610001293FDF731FE2DE68A010020BB01002048
:10362000BD01002011000020FEE7000008B5FEF7F4
:103630007FFC064B0649074A8B4201D3FCF786FD07
:1036400052F8040F43F8040BF6E700BF1000002007
:10365000C0000020ECB0000038B5044600F081FB4B
:103660000FCC044D0FC594E80F0085E80F00002033
:1036700038BD00BFDC16002047F6FF739A42F0B554
:1036800060D0022960D8314BCE00981913F8311060
:103690008578012DB8BF0125012919460DD1C378C0
:1036A0005B1B23B1416831F91310914202DC5819B8
:1036B000C0B2F0BD013B1BB2F3E740680028F8D070
:1036C000B0F90030934204DBB0F902309342B8BF46
:1036D00013468288FF2A03BFB0F90640B0F908708C
:1036E000012200221CBFC8242827E41A94FBF7F407
:1036F00014448A1924B25678721EA242A8BF2246E8
:103700004FF47A7700EBC2010132CC88896812B29B
:1037100013FB041121EAE171B24201F5FA71B1FB28
:10372000F7F104DA00EBC204A4888C42EAD200EB81
:10373000C20232F8040C884228BF0846A84238BFAB
:103740002846B5E7FF20B4E70020B2E7DC160020EA
:1037500070B50E46044678B1084D2B7863B9084B16
:10376000186000F07FF83146204600F06BF8031C2B
:1037700018BF01232B7070BD0020FCE7001700204C
:10378000FC1600200846114600F080B82DE9F843E9
:10379000124D04460F46994601216B680020904661
:1037A00098470646C4B104F10C004B4642463946E0
:1037B00003F0DAFF044618B92B6801209847044645
:1037C0003EB100F08DFB00B91CB100216B680846CA
:1037D00098472046BDE8F8832046E6E72800002009
:1037E0002DE9F041114D04460F466B680121002080
:1037F000904698470646BCB104F10C004246394653
:1038000000F072FA044618B92B6801209847044664
:103810003EB100F065FB00B91CB100216B680846A1
:1038200098472046BDE8F0812046E7E728000020C1
:103830007047431E012B03D9031F5842584170475C
:103840000120704738B504460D46002100F05BFAB0
:103850002946204603F016FE00280CBF2046002013
:1038600038BD000010B5044603F086F844B1054A9F
:10387000D4F88430002B08BF1346034A136010BDF0
:10388000A36FFFDE313800001C00002010B50C468D
:1038900003F094F81CB103F0EFF80128FBD1034BBF
:1038A00000215B680320BDE8104018472800002075
:1038B00000B10C3003F0FEB900B10C3003F012BAC5
:1038C0000B8810B43BB143F2C822934228BF134681
:1038D000642B38BF64230B804B883BB143F2C82272
:1038E000934228BF1346642B38BF64234B808B88D8
:1038F0003BB143F2C822934228BF1346642B38BF22
:1039000064238B80CB883BB143F2C822934228BF0B
:103910001346642B38BF64230A89CB8043F2C82442
:103920004B89A24228BF2246A34228BF23460A81D0
:103930004B8100B10C305DF8044B03F007BE000072
:103940002DE9F04FDFF85891524E83B004468DF8C0
:1039500007308B46174603F0FBFFB9F8005004F020
:1039600005F8002868D1236F326893425BD003F0DA
:1039700083F8012835D1DFF82CA1E26EDAF80030A7
:10398000206F002B5DD093425ED01D6811680268E5
:103990000DB18D4264D0204603F0A8FC00230546FB
:1039A00001270093D4F88080B8F1000F64D0002282
:1039B00011460DF107032046C0476DB9D4E91B231A
:1039C0003360009BCAF8002003B987B32046C9F8CA
:1039D00000B003F06FFA054687B9284603B0BDE88A
:1039E000F08F012002F0EAFF03F046F80128FBD136
:1039F000294B00215B6803209847BCE7B5FA85F0A6
:103A00004009332100F006FA9DF80710204603F024
:103A10008BFC224B216F1B68A4F10C0098472846B1
:103A200003B0BDE8F08F002BA1D05D459FD10025EC
:103A3000284603B0BDE8F08F0023336003F08EFF0B
:103A400091E711680268A6E7316800299DD081429C
:103A50009BD1B5EB0B0318BF012300930025A1E711
:103A6000316811B10968914201D0596893E7002388
:103A700000931D46012795E7617994F8B5309DF8CC
:103A80000720994228BF1946204603F0C2F9002DAD
:103A9000A2D193E70C170020280000201C00002072
:103AA00004170020081700202DE9F04F804683B04E
:103AB0000E46FDF759FBD8F8703082461BB1B8F8B6
:103AC0000830B3424FD0D8F86C70002F59D0BC6882
:103AD000002C56D0F968002953D0D8F880300193D3
:103AE000002B56D04FF00009CC464D46A8F10C0BE8
:103AF00000E0BC6805EB450204EBC2040135E28935
:103B0000B24216D8228AB242584612D3B4F91210E1
:103B1000B8F9EEC08C4501EAE17218DD98F8AC10F6
:103B2000FFF7AAFD98F80520824281460FD9F9686F
:103B3000A4468D42DDD3BCF1000F07D15046FDF7FE
:103B400047FB0124204603B0BDE8F08F6446002304
:103B5000194622464046019DA847A8F80860C8F8C3
:103B6000704088F8B590002331461A464046FFF76A
:103B7000E7FE04465046FDF72BFB204603B0BDE8A8
:103B8000F08F5046FDF724FB0324204603B0BDE828
:103B9000F08F994618461D4647F6FF7BA8F10C03A7
:103BA0000EE098F8AC10FFF767FD98F80520824208
:103BB0008146D2D9F968019B2046A94216D9BC6832
:103BC00005EB450204EBC2040135E289B242F4D8A8
:103BD000228AB242F1D3B4F9121001935945184622
:103BE00001EAE172DDD14FF0FF09B6E70028A5D068
:103BF0000446B2E7F8B50D1C18BF01250E4607466E
:103C00001F21284600F006F90024304600F08EF906
:103C10001F21284687F8B840C7E91B6400F0FAF86E
:103C2000F1684FF6FF721820E3B28B420BD31546B2
:103C30000A4A002313600A4A294638461360FFF7F0
:103C400033FF2846F8BDB56800FB0353DD89954274
:103C500002D2002DECD02A460134E5E708170020F7
:103C60000C170020008970470A7838B505461046C1
:103C7000FFF7DFFD60B14C782046FFF7DAFD38B181
:103C80002243530704D42846BDE8384003F044B823
:103C9000012038BD00B10C30FFF7E6BF10B5044677
:103CA0000878FFF7C6FD58B14A781046FFF7C1FD06
:103CB00030B1042A04D02046BDE8104003F056B8C5
:103CC000012010BD00B10C30FFF7E8BF30B4DDE9D2
:103CD000024500B10C30CDE9024530BC02F0F8BD20
:103CE00000B10C3002F056BF70B504460D461646C2
:103CF000FFF7DAFE30B9324629462046BDE870406B
:103D000002F0E6BE70BD03F039BE38B504460020AF
:103D10000D4600F009F94CB1D4F88C304BB9294666
:103D200004F10C00BDE8384003F092B8D4F88030BC
:103D3000FFDE022038BD38B5044648880D4600F045
:103D4000F3F84CB1D4F88C304BB9294604F10C008F
:103D5000BDE8384003F038B8D4F88030FFDE0220E8
:103D600038BD00F0E2B838B505460C46FDF7FCF961
:103D7000A9696B690C4023436B61FDF729FA0020A8
:103D80000CB9002138BD4FF48071FBE700B10C3055
:103D900003F0FDB900B10C3003F013BA07B502AA65
:103DA0004FF4007322F8023D0749FFF7F3FFBDF817
:103DB0000630B3F5007F05D1022808BF002003B00C
:103DC0005DF804FB0120FAE71017002008461146B1
:103DD00003F002B900B10C3003F0C6B938B515468E
:103DE00058B100F10C0411B1204603F005FA35B1C9
:103DF0002046BDE8384003F04DBA0446F3E738BD2D
:103E0000024B1960024B1860FEE700BF2000002043
:103E10002400002008B528B9034B1960034B18682B
:103E2000FFF7EEFF08BD00BF20000020FC160020B9
:103E3000034618B15B7B0C3013B108475B78FFDE9B
:103E40000220704710B5044603F0DEFD2046032132
:103E5000BDE8104002F09CBD00B10C30FFF7F2BF8E
:103E60000149FFF7E5BF00BFE17900000149FFF715
:103E7000DFBF00BFB979000070B5437806460C4635
:103E8000B3B103F0CAFD616802460546304603F04F
:103E9000C7FD206890FAA0F0000A02F093FFA17A13
:103EA00020892A4681F0010103F000FE002070BD48
:103EB0000220FCE71FB500B10C30CDE90112ADF8CE
:103EC0000C3001A99DF818308DF80E30FFF7D4FFA3
:103ED00005B05DF804FB002070470020704700002B
:103EE000014B1878704700BF10190020431C08D000
:103EF000044AD2F83C311B0C1B0480B20343C2F8C5
:103F00003C3170470040084010B504460846FFF7B2
:103F1000EDFF236F33B15B6923B14A1C08BF6FF01B
:103F200001011960002010BD70477047024B31211C
:103F30005B680120FFF76EBFB081E00F38B50D461A
:103F4000044600F05BFFAC4042F2107164094C4340
:103F50006423B0FBF3F0B4FBF0F038BD034B1A68F8
:103F600002609B8883800020704700BF36000020DD
:103F70000F4B0228D3F8883104D183F40010C0F32A
:103F800040507047012805D113F4400F0CBF0120A9
:103F90000020704748B9074A506A10F0010005D068
:103FA00083F48000C0F3805070470020704700BF4A
:103FB00000400E40B081E00F0B4B5B88B3F5E16F22
:103FC00095BFC8235A237822502298428CBF1723CA
:103FD00010230B70054B1B7823B1904294BF002037
:103FE000012070471846704736000020340000203A
:103FF00037B51E4B1B78032B044634D00DF1070157
:10400000FFF7DAFF1E2C8CBF19491A499DF80720CB
:104010004FF001030B608CBF01240024164950B1FE
:10402000164B4DF601751D60120203F1007342F448
:1040300040421A608A810A7C22F00102024322F087
:10404000020242EA4402D3B20D4A0B74127852B90A
:1040500023F0040343EA800323F008038A89CA811A
:1040600043EAC4030B7403B030BD00BF3600002028
:104070000841084608410844D81F0021044108446B
:10408000131900200A4B0B4AD3F88831DB4303F4A1
:10409000FE1343F40053B3FA83F3C3F1FF2303F594
:1040A0007F03F233C3EB4313013B1370704700BF30
:1040B00000400E403E000020012804D008D3022812
:1040C00003D00020704707207047044B18787047D2
:1040D000024B18780430C0B2704700BF3E00002089
:1040E00030B51F234FF0FF34B0FBF3F35D1CC3EB7F
:1040F0004313AC40C01AE443C0B2E4B201301460D0
:10410000086030BD2DE9F3411646404A404C126824
:10411000404F14403A78012A054688461AD144EAAD
:10412000006488F80000002333607B88B3F5E16FFA
:104130008CBF5A23C82324F47F549D4224F00804E2
:104140009ABF200A00F47F5043F6C870204302B0A3
:10415000BDE8F081304A1278904228BF1546002B06
:1041600014BF042300232B440B70002D2FD12B4BA5
:1041700033606A46284601A9FFF7B2FF009A284B30
:1041800001981B7898F800C044EA823444F47F54C4
:1041900044F0080444EA0064FBB122493878224B19
:1041A000B2FA82F2C2F11F02022818BF0B46511C5C
:1041B00017D09B5CD8B2316821F07F433360BCF1EB
:1041C000000F10D143F0306343F00403ACE74FF02D
:1041D0003063013D3360EDB2CBE7FF204FF0FF329B
:1041E000E9E7FF20E7E7013203D0421ED2B2FD2A01
:1041F00006D921F07F4323F0040343F07F4393E784
:1042000043F0040343EA00638EE700BFD81F002198
:104210003F00C0E0360000203E0000200400000BFC
:1042200016190020B883E00FB083E00FF7B50446FD
:10423000C820FFF7DDFE284B284D1B78032B01D04B
:10424000FF2C03D1FF20287003B0F0BD012B28D133
:10425000072C204628BF072001284FF0000301AAA1
:104260000DF1030138BF0120FFF74CFF06461C4B40
:104270001C4C019AC3F8582126609DF80300287051
:10428000FFF7B6FE019A130203F4E06343EA1263F8
:10429000154A238112780AB9666063819DF803008C
:1042A000D2E78BB9042C11D81F461846201A01AA50
:1042B0000DF10301C0B2FFF725FF4FF4800306465E
:1042C00047B10A4A1360D2E70023EDE701231F46F6
:1042D0000420EBE7064AF5E7360000203500002011
:1042E00000400840D81F002113190020084108464B
:1042F0000841084408B500F08DFF094B094A002821
:1043000014BF18461046036823F47F125B0803F4B9
:10431000FE1313430360044B4FF00072DA6108BDD3
:1043200000410840184108400040084008B500F02E
:1043300071FF4FF4001330B1044A1360044B4FF087
:1043400000621A6008BD034AF7E700BF0041084455
:104350002040084418410844014B1868704700BFCA
:104360001819002070B505460E46C0B201F00F01C5
:10437000FFF7E4FDC6F303110446C5F30720FFF77A
:10438000DDFDC6F303210444C5F30740FFF7D6FD66
:10439000204470BD434B1B682DE9F047D0F8005115
:1043A000DFF82081404F414E03F4E073A3F5C07263
:1043B000002D08BF01258146504250413C4A1168FA
:1043C000A9423C4910D10C7884420DD199F8ACC077
:1043D00098F80040A44507D199F806C03C78A44558
:1043E00002D1B088BDE8F087B3F5C07F15600870D2
:1043F00054D099F8AC30022B47D12F4B1B78002BAF
:1044000014BFC82496240F212046FFF797FDB5FA64
:1044100085F3B0FA80F29B1A002BC4BFC3F10F0AD8
:10442000D840264BD8BF4FF00F0A85424FEA0440D0
:10443000C3F8BC0003F1806303F1B80340F6FF72D8
:1044400038BF0AF1FF3A1A6003F100734FEA0A21FC
:104450001960FFF787FFB08000F0D0FC04FA0AF47F
:104460004FF4FA735C4341F66A03B0FBF3F0144B6C
:10447000B4FBF0F40A2044431C6099F8AC3088F88F
:10448000003099F806303B70ABE7012B08D00A4B9F
:104490001B78002B14BFF024B424B4E70024B2E747
:1044A0003224B0E7186008403C00002036000020AD
:1044B000300000201119002016190020006008406B
:1044C000181900203D000020FF290BD00D4B0E488D
:1044D00018600B04090503F4E02301F0F871194397
:1044E0000A4B1960FF2A0BD0064B40F2F7111960F6
:1044F000130103F4F87302F007021A43034B1A6026
:10450000704700BF504108440000F7015041084681
:10451000F8B5144B1C6804B10C34204600F06AFE58
:10452000114E124F3278C5B2AA4201D13B78A3B1E5
:10453000092D13D80E4B012D595D05D10D4B1B785C
:10454000012B01D141F0400101F00F022046090981
:10455000FFF7BAFF002335703B70F8BD0025FA2144
:10456000F2E700BFFC1600201419002015190020E6
:104570000094000036000020F8B5054600F00CFC61
:1045800028782F4C2F4FFFF7F3FC28B90323237013
:10459000FF233B700120F8BD2B4E14220021304632
:1045A00004F065FD2A7823789B1A284A18BF012356
:1045B00013702B682360AB88A380C820FFF718FD19
:1045C000FF2332683B70224B13402278022A18D115
:1045D000204A4FF4EE41116002F100724FF48A411B
:1045E000116043F08043012142F8041C33601A4BF0
:1045F00003221A60FFF78CFF184B01221A7000206B
:10460000C9E7012A16481749174A4FF0070409D18C
:104610000460062008601549116043F003034FF45D
:104620004041E1E7046005200860C0211160104AA4
:1046300043F08043812143F004031160D6E700BFBB
:104640003600002035000020D81F00211519002059
:104650002800C0A0244108445841084412190020F1
:104660000C4108440C41084608410844C100400080
:10467000084108462DE9F84F2F4F304B3B6000F0C2
:10468000BDFB4FF4FA734FF47A76DFF8C880B0FBC5
:10469000F6F56B434FEA032A4FEA136B1AEB080057
:1046A0004FF000094FF00003254A4BEB090103F0DE
:1046B0002DFFA0F580730446BB6218B92B21FFF7CC
:1046C000A9FB012406FB04F2002756084FEA05283F
:1046D000B8193B4648F1000103F018FF194B196067
:1046E000194B4FEA046881468A461860240A25B9A6
:1046F00028462B21FFF78EFB01254FF47A73A8FB88
:10470000036703FB04776C08301947F100012A4660
:10471000002303F0FBFE0D4B074A19600C4B19F107
:10472000020618604AF10007B30843EA8773013BA9
:104730001363BDE8F88F00BF00500840001101006E
:1047400040420F00281900202419002020190020C1
:104750001C19002020A10700044B4FF00052C3F8A1
:1047600080211A60024B01225A60704700E100E08C
:1047700000500840054B0201134401221A604FF417
:10478000807303FA00F0024B5866704700510844EA
:10479000005008402DE9F047144684B005460E4607
:1047A0009A46FCF7E1FC022C00F0C6800746FCF7B5
:1047B0000BFD7D4B7D497E4AD3F8188091F815900A
:1047C00012685FFA89F91AB1D3F8188009F1010962
:1047D000FCF730FD77487849D0F800C0D1F800E008
:1047E00009F00303002242EA0802ACFB02891946E1
:1047F000CDE900891046CDE902014FEA817801999F
:1048000000230CFB03130193DDE90001029B10F16F
:10481000004041F100010EFB038E012C8E4409BFC4
:104820003168D6F800C0013101EB0E0CAEEB0C0E76
:1048300008BFC6F800C0BEF1804FC0F083805F485B
:104840005F49D0F80090DFF860E1D1F80080DEF831
:1048500030E02CF040464FF000400021E6FB09011B
:1048600008FB061676454FEA9C7C304607D90EF1C8
:10487000010E0CF1010CB6EB0E000CF0030C4FF026
:104880000008E14648EA000849464046DDE9028959
:10489000A1EB090E8045CDE9000184BF0EF1FF3E7A
:1048A00041490EF00303DFF834E188BF096B42464B
:1048B000D9B2861A0EF8051000294AD13A49009A51
:1048C00001EB051C05F110031B01CCF80C214FF086
:1048D000110C41F803C0029A8B69D1F85CC09A1A96
:1048E000B24228D34FF48073AB401CEA030F22D1AD
:1048F0001EF80520002A45D1002C49D01AF0010FDE
:104900000B6608D02F4B304941F61F7240F2011060
:104910001A6008601A601AF0020F06D0294B2A4963
:104920002A4A2B481A6008601A601AF0040F1EBF4A
:10493000284B01229A603846FCF74AFC012004B05B
:10494000BDE8F0873846FCF743FC002004B0BDE822
:10495000F0871AF0010F1EBF1A4941F61F7CC1F8FB
:1049600000C01AF0020F1EBF1649DFF860C0C1F880
:1049700000C01AF0040F1EBF0B494FF0000CC1F825
:1049800070C09BE738460B66FCF722FC0120D6E797
:10499000114A2D012A440125384615604B66FCF763
:1049A00017FC2046CBE700BF005008403D1A00200E
:1049B000880B0A431C19002020190020241900200C
:1049C000281900206C5008446C50084600001F1F36
:1049D000000001010040084000510844381A00203E
:1049E0001030034B0001185800F00100704700BF61
:1049F00000500840103001F460010001024B41F00A
:104A000003011950704700BF0050084038B5FCF74B
:104A1000DBFB094A094B9D69547D094A1268E4B2DF
:104A20000AB19D690134FCF705FC002204F0030380
:104A300042EA0500194638BD3D1A002000500840E2
:104A4000880B0A4308B5222000F0EAF8024B4FF425
:104A500080225A6008BD00BF005008400A4B2DE973
:104A600030481C68094B1D684443A5FB00BC04EB9F
:104A70008174002105FB01CC1BF100424CF10003C5
:104A8000E018BDE8308800BF201900201C19002064
:104A900008B5FFF7BBFFBDE80840FFF7DFBF10B563
:104AA0000446FFF7B3FF844202D9003041F1FF31E1
:104AB000002201F0030342EA04001946BDE8104059
:104AC000FFF7CCBF104B11491B68096B2DE930482B
:104AD00020F040424FF000440025E2FB03450C4B20
:104AE0001B6803FB02528A4214464FEA907304D9B2
:104AF00001310133541A03F003034FF0000B4BEA6A
:104B000004001946BDE830882419002000500840F0
:104B10002819002038B50446FFF7BAFF0546FFF70D
:104B2000B7FF401BA042FAD338BD000038B5344B64
:104B3000344C082205461A6001213348FDF762FB18
:104B4000324B1D702378013B012B0CD8237CE07B7A
:104B500001229A400C21302313FB001303F18843F8
:104B600003F520431A602A4B00225A67002D40D0DB
:104B70006368002B33D000F041F9626800EB520308
:104B8000B3FBF2F3013B1B0243F0F8032278022A45
:104B900027D0032A29D0012A2ED143F0020307226D
:104BA0001C494FF6FF70086001F100710B60184B53
:104BB0005A6753070CD5237CE07B01229A400C21D5
:104BC000302313FB001303F18C4303F520431A60D9
:104BD0004FF0804395B1104A1360002038BDF82390
:104BE000D4E743F001030522DAE743F0050301228D
:104BF000D6E72A46F823D3E70022D1E7074AEBE7B6
:104C0000C8400E463019002000350A002C1900203B
:104C1000000008407C000844944008469440084442
:104C2000044BD3F89430002BBCBF034BC3F8800077
:104C3000704700BF00400840000008404FF000638C
:104C400010B1024A13607047014AFBE794400846DE
:104C50009440084408B5064B06491A684FF00450C2
:104C6000920004F0F9F9BDE8084000F077BB00BFFE
:104C70003CAC000030940000C0F30062034B33F8FA
:104C8000123080B240EA0340704700BF0A9400002F
:104C900007B501A8FCF76CFA154B164AC3F8442176
:104CA00048F2E672C3F838214FF40862C3F83421A1
:104CB000114AC3F8A020114A4AF63F41916002F51B
:104CC00080424FF0C07191620022C3F8FC200C4A70
:104CD000C3F89C2003F18063A3F6DC737F221A6083
:104CE00003F1007323221A6003B05DF804FB00BFD8
:104CF00000400840C0E653517A27000F00300840BA
:104D0000806D630330B50A4B0A480B4C0B491A6897
:104D100042B102EA0005A54204BF5D681560083390
:104D20008B42F4D1064BD3F83C21064B1A6030BDC0
:104D30000080E00F0000FFFF00000840B081E00F9E
:104D400000400840440000200F4B002210B5C3F87B
:104D50008820C3F88C20C3F890200C4A01211160F0
:104D60005A6812F0706FFBD14FF00452DA6702F507
:104D7000FD5201241032C3F880401A66044B1B68B0
:104D80009847044B1C6010BD004008400C4008468A
:104D9000400000200C400844034BFD22C3F8C8200B
:104DA0000122C3F8CC20704700400E4008B5FFF741
:104DB000F3FFFFF7A7FFFFF76BFF0C4B03221A600F
:104DC0000B4B4FF4C012C3F8942003F1C06394332B
:104DD00001221A6000F0BCFA064B4FF460721A60B0
:104DE000054A4FF040731360936108BDD8600846D0
:104DF000004008400C400846F840084608B5FDF75A
:104E0000A5F8044BD3F81031C3F308230133B0FBEA
:104E1000F3F008BD00400E40F8B5044618B1012576
:104E200021684B1C00D1F8BD0846C1F30746FFF7C7
:104E300023FF012E03460CD9B600A1192246031BFD
:104E40009F1852F8040F38608A42F9D1043634446E
:104E5000E6E7090F606808340729E1D8DFE801F0C8
:104E60000A0408110C0F1417C04303F1806301E01A
:104E70001A6850401860D3E7FFF74CFED0E705FAF8
:104E800000F003F1C063F5E705FA00F0EDE71A68FA
:104E900030EA0202FBD1C3E708B5FFF7AFFF064ACD
:104EA000126D034690B228B1C2F30742DB085343A8
:104EB000B3FBF0F008BD00BF0060084010B5044629
:104EC000FFF7EAFFC4F30113022B05D0032B09D02F
:104ED000012B00D1400810BDC4F3C4240134B0FB41
:104EE000F4F0F8E78008F6E700F03003202B10B567
:104EF00012D1C0F302441CB1C0F3C423B3FBF4F4D9
:104F000010F4C01F18BF64006408032C28BF0424D9
:104F1000FFF7D4FF604310BDC0F38213012B01D013
:104F2000042B01D10224F3E70124F1E72DE9F84332
:104F30001A4EDFF870800746B146FCF715F9756820
:104F4000D8F808309B09C3F309049B05D9F804304D
:104F5000C3F3036348BF6FEA8454A3F1020348BF5D
:104F60006FEA9454012B24B211D8C5F30365023DB6
:104F7000012D8CBF00250125FCF72AF914F5007FCF
:104F800007D10DB1002FD8D12046BDE8F883002508
:104F9000F2E7034B002D08BF1C46F5E70040084030
:104FA00000FEFFFF00700840024B012218619A606A
:104FB000704700BF00200840084B10B5D3F870219F
:104FC00018B902F00F0010BD22465968D3F870419D
:104FD000A242F9D1C1F303630370F2E70040084035
:104FE000024B1B6803B11847704700BF44190020EB
:104FF0002D4B70B51C682D4B2D4E1D6B2D4B1B681A
:10500000ED0254BFE31A1B192B4CB3FA83F5B3F12D
:10501000804F98BF2646D5F10205284C54BFEB407F
:105020000025A34288BF5B0803EB5604B4FBF6F4EB
:10503000234E88BF0135B34204F1FF3494BF0026EC
:10504000012644EA862444EA05340C6050B3B3FBDD
:10505000F0F1642400FB11336343834238BF01F154
:10506000FF314B08013B0139072B4FEA5101154C29
:1050700003D8072901D89BB991B9002020701248A4
:105080002478062505601148007824B118B110482D
:10509000022404600020090241EA0311116070BD7E
:1050A0000120EBE70220FAE74C190020003008400D
:1050B000C0CF6A0048190020E06735003FBE402598
:1050C0003F1B5F13511900209440084452190020DF
:1050D00094400846000000002DE9F84F0FF29809AF
:1050E000D9E90089A2FB034518EB040A49EB050B3B
:1050F000D046D9460FF2880BDBE900ABCB4508BFA1
:10510000C2450E460A9F05D20E210020FEF782FE00
:1051100002201BE00029FBD0C0F3130001EB530178
:10512000B1FBF3F3A3FB0001C30C43EA41330E4987
:105130000B600E4B1A600E4B9E4209D10D49A4FB29
:10514000012301FB05339B093B600020BDE8F88F7C
:10515000E90432460023E00441EA543103F0D6F971
:105160003860F2E7AFF30080481900204C190020A6
:1051700000F049020A3BB2DF00C9E876FFFFFFFFFB
:105180000046C3230000000038B5154D2B780C46AF
:1051900023B9144B1B6D03F03F032B70124BD3F854
:1051A00094305B061AD5114BB0FBF3F040F24D532F
:1051B0004343A3F546430C3B584300F5C91000F5A3
:1051C000556018B92B21FEF725FE01202A78084BDF
:1051D0005343B3FBF0F02060002038BD0220FCE711
:1051E00053190020003008400040084000366E018E
:1051F00080969800064B1B68C3F3C20203F00700B9
:1052000002B15043C3F3821303B15843704700BF48
:1052100034300840034BD3F8380180F01000C0F35D
:10522000001070470040084038B5154B154C164D1E
:105230004FF40022B0F1804F8CBF20461846134B2C
:105240002A601B68D3B1124B124C1B6F00F5F4207F
:1052500000F59070B0FBF4F4033CE4B203F00703F4
:10526000A34202D02046FBF79DFF0B4B1B782BB1CE
:105270000A4B4FF4702224041A602C6038BD00BF22
:10528000E0673500C0CF6A00944008468009C643F5
:1052900000300E4040420F00501900209440084456
:1052A0007FB50446FCF7DEFD1D4B1E4A064631461F
:1052B000186B0092A3792268FFF70EFF05460028BD
:1052C0002BD1A3791849012B14BF184A184A10236F
:1052D0001360A37920685843FFF756FF03AA02A979
:1052E0003046FFF785FE134B43F6FF521A6003F179
:1052F0000073029A1A6003F17E43743B4FF4EE622E
:105300001A6003F10073039A1A602068FFF78CFF9C
:10531000034BA2889A630022DA63284604B070BD6A
:10532000003008402C3008405030084038410846D2
:1053300038410844A4400844034B01221A70034B2F
:105340001868FFF771BF00BF501900204C190020EA
:10535000014B40221A6070479440084670B5104CCB
:105360000FCC86B001AD0FC5B42223680D482B6069
:10537000002103F07CFE7C2200210B4803F077FE25
:105380000A4B0B4A5A6002F0D1FE0A4B1B782BB134
:1053900001AD0FCD024E0FC62B68236006B070BD65
:1053A000D81F00214C1F0021D01E0021EC1F00211E
:1053B0003F003700121900202DE90048FBF7D4FE0A
:1053C000144B1978E9B9144BD3E900234FF0000CC2
:1053D00002F4843B5BEA0C0313D1104B10221A60D9
:1053E0000D4BD3E900234FF0000C02F4807B5BEA05
:1053F0000C030BD1094B20221A60BDE80048FBF7D3
:10540000E7BE074B10221A600029E9D0044B202286
:105410001A60F2E7611900205819002094400844EE
:1054200094400846044B00221A70044B197811B1BD
:105430001A70FFF7C1BF7047621900206119002080
:105440000D4A0E4BA020D3F888101060102042F8AF
:10545000880C0B484FF0007202600A4889064266C9
:1054600008D502F11F224C321269B2F5817F24BFA8
:1054700080229A60704700BF88400844004008407E
:10548000685008440050084008B5FBF76DFE0A4B11
:105490005B68C3F30363032B06D1084A136823F048
:1054A000F00343F0E0031360054B40F201225A621F
:1054B000BDE80840FBF78CBE004008404C1F0021AF
:1054C0000000084008B5FBF74FFE244B4FF0805218
:1054D000C3F88020BFF34F8FBFF36F8F4FF48072FC
:1054E000C3F88020BFF34F8FBFF36F8F0222C3F842
:1054F0008020BFF34F8FBFF36F8F1022C3F880203F
:10550000BFF34F8FBFF36F8F2022C3F88020BFF30C
:105510004F8FBFF36F8F4FF00052C3F88020BFF35F
:105520004F8FBFF36F8F8022C3F88020BFF34F8F60
:10553000BFF36F8F4022C3F88020BFF34F8FBFF3BC
:105540006F8F4FF00042C3F88020BFF34F8FBFF33F
:105550006F8FBDE80840FBF73BBE00BF00E100E0F5
:105560002DE9F84F0A9E0B9F8046894602EA000A01
:1055700003EA010B3740002E3FD1002908BF012864
:105580001ED0C0F08781002908BF042850D1FBF746
:10559000EBFDC149D1E9002322F0040444EA0A02E8
:1055A00043EA0B03C1E900235AEA0B0314BFBB4AC9
:1055B000BB4A4FF480631360BDE8F84FFBF708BEA9
:1055C000FBF7D2FDB449D1E9002322F0010443EAFC
:1055D0000B0344EA0A02C1E90023B24A5AEA0B0368
:1055E0004FF001031DBF936302F1C0623C32AE492C
:1055F00012BF13600B609363DEE758EA090317D10B
:10560000012E15D1FBF7B0FDA84A136823F0010362
:105610003B4313604FF48063A54A2FB1536602F1F8
:10562000C06268321360C7E7A2490B605366C3E7E4
:10563000FFF748FF984BD3E9004525EA090242EA03
:105640000B0924EA0801994A41EA0A08C3E90089DA
:10565000136823EA06063E431660FFF7ADFE08F026
:10566000AA4200231343944A9449126848F2020361
:1056700008BF4FF40043B00748BF43F4005322EA89
:1056800003070F6001F17C4183EA0200043923EA39
:1056900002038B4A08601360002308F4802213433E
:1056A00008F400204FF0000114BF4FF48053002392
:1056B00050EA010208F010004FF0000118BF43F457
:1056C000807350EA010208F020004FF0000118BF7B
:1056D00043F4005350EA010208F040004FF000018B
:1056E00018BF43F4007350EA010208F080004FF045
:1056F000000118BF43F4806350EA0102714A724905
:10570000126818BF43F4006322EA03070F6001F137
:105710007C4183EA0200043923EA02036B4A0860F1
:10572000136009F480730022134308F480504FF093
:10573000000114BF4FF48023002350EA010208F453
:1057400000304FF0000118BF43F4803350EA0102EB
:1057500008F002004FF0000118BF43F4801350EA34
:10576000010208F400104FF0000118BF43F40013C9
:1057700050EA010208F480104FF0000118BF43F412
:10578000002350EA010209F008014FF0000018BFA1
:1057900043F4003350EA01024D4A4E4818BF43F427
:1057A00080037107116848BF43F0040383EA0102D4
:1057B00022F0010211400160474913400A60474A44
:1057C0001360474A474B16F0010F4FF0000009F0F5
:1057D000020118BF134650EA0102434A35491268D4
:1057E00018BF43F4001322EA03070F6001F17C4164
:1057F00083EA0200043923EA02033C4A086013608A
:105800003B4B29491B6808F0010423EA04070F6099
:1058100001F17C4183EA040024EA03020439354B98
:1058200008601A6008F4800200231343324A334BA5
:105830001B4808F004044FF0000518BF134654EA53
:10584000050218BF43F4806332072D4A116848BF30
:1058500043F0004383EA010222F4A02211400160D8
:10586000284913400A600D4A1360FBF77DFC264B64
:105870004FF080521A604FF480721A6010221A6042
:1058800020221A604FF000521A6080221A604022D3
:105890001A6091E6BDE8F88F58190020EC10084610
:1058A000EC100844007008403C7008445419002073
:1058B00000500840685008446C0008406C000844E0
:1058C0006C0008460C6208400C6208440C620846F2
:1058D00020400840204008441C4008402040084622
:1058E000041C5000041850006850084068500846D6
:1058F0003C7008403C7008460D0A0A09090A0A096A
:10590000EC100840E810084000E100E0024B586845
:10591000C0F38000704700BF58190020024B186880
:1059200000F00100704700BF5819002010B5044670
:10593000FFF73CFAFFF7C6FD04F12C0002F024FA51
:10594000FFF702FAFEF796FEFEF706FF02F052FCA2
:10595000072104F1840002F091FC4FF44001002083
:10596000FFF748F84FF400110120FFF743F802F069
:10597000A7FD10B91421FEF74DFAFFF7DDFC012059
:10598000BDE81040FFF7D2B8044B80221A60044AE9
:10599000136823F020031360704700BF8840084657
:1059A000D01E0021674BDB68DA0740F185802DE9C6
:1059B000F04B0C4682B00546FBF7D6FB237900225C
:1059C000022B064600923FD1237B022B35D00320C9
:1059D000FFF706F820B95C4B5B685B0440F19F80E1
:1059E000A37B277B5949A2680192003318BF01238A
:1059F000012F0B7062D0564C5649227800230B7051
:105A0000002A66D14F4D0420FEF7B4FEEB6E23F062
:105A1000F85323F4F81343F0506343F48033EB66F8
:105A20003A46022301A90420FEF7B4FE002871D0F3
:105A3000494B0121302221701A603046FBF7C8FB28
:105A4000002002B0BDE8F08B0320FEF7C9FF00285C
:105A500065D12179B5F894202368012956D09B1A85
:105A60000093384B3D4ADA6600221A67617B3C4A54
:105A70003C4B00290CBF0121002111704FF00102A5
:105A80001A70394A13680CBF43F0200323F0200337
:105A900013600320FEF76EFE2A4B344ADA66227941
:105AA000012369460320FEF775FE00288CD130469D
:105AB000FBF78EFB0120C4E7032070472379022BFC
:105AC00099D0B5F8943000990B441A4401920027FC
:105AD00091E72370FBF748FB23783BBB244BD3E9CA
